{
  "contractName": "HelloWorld",
  "abi": [
    {
      "inputs": [],
      "payable": false,
      "stateMutability": "nonpayable",
      "type": "constructor"
    },
    {
      "anonymous": false,
      "inputs": [
        {
          "indexed": false,
          "name": "_msg",
          "type": "uint256"
        }
      ],
      "name": "Hello",
      "type": "event"
    },
    {
      "constant": false,
      "inputs": [
        {
          "name": "_msg",
          "type": "uint256"
        }
      ],
      "name": "hello",
      "outputs": [],
      "payable": false,
      "stateMutability": "nonpayable",
      "type": "function"
    },
    {
      "constant": false,
      "inputs": [
        {
          "name": "_owner",
          "type": "address"
        }
      ],
      "name": "transferOwnership",
      "outputs": [
        {
          "name": "",
          "type": "address"
        }
      ],
      "payable": false,
      "stateMutability": "nonpayable",
      "type": "function"
    }
  ],
  "bytecode": "0x608060405234801561001057600080fd5b50336000806101000a81548173ffffffffffffffffffffffffffffffffffffffff021916908373ffffffffffffffffffffffffffffffffffffffff1602179055506102a4806100606000396000f3fe60806040526004361061004c576000357c0100000000000000000000000000000000000000000000000000000000900463ffffffff168063b0f0c96a14610051578063f2fde38b1461008c575b600080fd5b34801561005d57600080fd5b5061008a6004803603602081101561007457600080fd5b810190808035906020019092919050505061011d565b005b34801561009857600080fd5b506100db600480360360208110156100af57600080fd5b81019080803573ffffffffffffffffffffffffffffffffffffffff1690602001909291905050506101b2565b604051808273ffffffffffffffffffffffffffffffffffffffff1673ffffffffffffffffffffffffffffffffffffffff16815260200191505060405180910390f35b6000809054906101000a900473ffffffffffffffffffffffffffffffffffffffff1673ffffffffffffffffffffffffffffffffffffffff163373ffffffffffffffffffffffffffffffffffffffff1614151561017857600080fd5b7f775a94827b8fd9b519d36cd827093c664f93347070a554f65e4a6f56cd738898816040518082815260200191505060405180910390a150565b60008060009054906101000a900473ffffffffffffffffffffffffffffffffffffffff1673ffffffffffffffffffffffffffffffffffffffff163373ffffffffffffffffffffffffffffffffffffffff1614151561020f57600080fd5b816000806101000a81548173ffffffffffffffffffffffffffffffffffffffff021916908373ffffffffffffffffffffffffffffffffffffffff1602179055506000809054906101000a900473ffffffffffffffffffffffffffffffffffffffff16905091905056fea165627a7a72305820b8bc410f7d35db7dc7a454c53603d60a440d2b4ef94e43d3820d70cf0afb28910029",
  "source": "pragma solidity ^0.5.0;\n\ncontract HelloWorld {\n    //track the owner\n    address internal owner;\n\n    constructor() public {\n        owner = msg.sender; //deployer of contract\n    }\n\n    //log string\n    event Hello(uint256 _msg);\n\n    //protects functions from executing\n    modifier onlyOwner {\n        require(msg.sender == owner); //condition must be true\n        _; //return to function and continue\n    }\n\n    //trivial hello function, only owner can call\n    function hello(uint256 _msg) external onlyOwner {\n        emit Hello(_msg); //note emit keyword\n    }\n\n    //transfer ownership, only owner can call, returns new owner\n    function transferOwnership(address _owner) external onlyOwner returns(address) {\n        owner = _owner;\n        return owner;\n    }\n}",
  "sourcePath": "/Users/christopherpowroznik/Documents/Projects/ethereum-airbnb/contracts/HellowWorld.sol",
  "compiler": {
    "name": "solc",
    "version": "0.5.0+commit.1d4f565a.Emscripten.clang"
  },
  "schemaVersion": "3.0.1",
  "updatedAt": "2019-03-07T03:56:06.818Z",
  "devdoc": {
    "methods": {}
  },
  "userdoc": {
    "methods": {}
  }
}